{
	"data": {
		"bytecode": {
			"linkReferences": {},
			"object": "608060405234801561001057600080fd5b50611e94806100206000396000f3fe6080604052600436106100705760003560e01c80637abe14bf1161004e5780637abe14bf146100a5578063a4caaf18146100c1578063af1d3ff7146100dd578063ce30d097146100f957610070565b806302767c3314610075578063123b62e61461007f5780632eeca50914610089575b600080fd5b61007d610115565b005b6100876103a5565b005b6100a3600480360381019061009e91906114b5565b610522565b005b6100bf60048036038101906100ba919061143d565b6106aa565b005b6100db60048036038101906100d691906114b5565b6108e4565b005b6100f760048036038101906100f291906113f4565b610a54565b005b610113600480360381019061010e919061143d565b610e56565b005b60005b6000805490508110156103a2576102f56040518060400160405280600a81526020017f4d617373616769737420000000000000000000000000000000000000000000008152506000838154811061017257610171611c07565b5b9060005260206000209060040201600001805461018e90611afd565b80601f01602080910402602001604051908101604052809291908181526020018280546101ba90611afd565b80156102075780601f106101dc57610100808354040283529160200191610207565b820191906000526020600020905b8154815290600101906020018083116101ea57829003601f168201915b50505050506040518060400160405280600f81526020017f2061742074686520616765206f662000000000000000000000000000000000008152506000858154811061025657610255611c07565b5b9060005260206000209060040201600101805461027290611afd565b80601f016020809104026020016040519081016040528092919081815260200182805461029e90611afd565b80156102eb5780601f106102c0576101008083540402835291602001916102eb565b820191906000526020600020905b8154815290600101906020018083116102ce57829003601f168201915b5050505050611024565b61038f6040518060400160405280600f81526020017f48652873686529206561726e65642000000000000000000000000000000000008152506000838154811061034257610341611c07565b5b9060005260206000209060040201600301546040518060400160405280600381526020017f65746800000000000000000000000000000000000000000000000000000000008152506110c6565b808061039a90611b60565b915050610118565b50565b60005b60028054905081101561051f5761050c6040518060400160405280600881526020017f53657276697665200000000000000000000000000000000000000000000000008152506002838154811061040257610401611c07565b5b90600052602060002001805461041790611afd565b80601f016020809104026020016040519081016040528092919081815260200182805461044390611afd565b80156104905780601f1061046557610100808354040283529160200191610490565b820191906000526020600020905b81548152906001019060200180831161047357829003601f168201915b50505050506040518060400160405280601181526020017f20617420746865207072696365206f66200000000000000000000000000000008152506001600286815481106104e1576104e0611c07565b5b906000526020600020016040516104f8919061175b565b908152602001604051809103902054611165565b808061051790611b60565b9150506103a8565b50565b6000825111610566576040517f08c379a000000000000000000000000000000000000000000000000000000000815260040161055d906118c9565b60405180910390fd5b60006001905060005b600280549050811015610605578360405160200161058d9190611744565b60405160208183030381529060405280519060200120600282815481106105b7576105b6611c07565b5b906000526020600020016040516020016105d1919061175b565b6040516020818303038152906040528051906020012014156105f257600091505b80806105fd90611b60565b91505061056f565b5080610646576040517f08c379a000000000000000000000000000000000000000000000000000000000815260040161063d906119a9565b60405180910390fd5b816001846040516106579190611744565b9081526020016040518091039020819055506002839080600181540180825580915050600190039060005260206000200160009091909190915090805190602001906106a49291906112cc565b50505050565b60008251116106ee576040517f08c379a00000000000000000000000000000000000000000000000000000000081526004016106e590611909565b60405180910390fd5b6000825111610732576040517f08c379a000000000000000000000000000000000000000000000000000000000815260040161072990611969565b60405180910390fd5b60006001905060005b6000805490508110156107d8576000818154811061075c5761075b611c07565b5b906000526020600020906004020160000160405160200161077d919061175b565b60405160208183030381529060405280519060200120846040516020016107a49190611744565b6040516020818303038152906040528051906020012014156107c557600091505b80806107d090611b60565b91505061073b565b5080610819576040517f08c379a000000000000000000000000000000000000000000000000000000000815260040161081090611949565b60405180910390fd5b600080805490509050600060018160018154018082558091505003906000526020600020905050836000828154811061085557610854611c07565b5b906000526020600020906004020160000190805190602001906108799291906112cc565b50826000828154811061088f5761088e611c07565b5b906000526020600020906004020160010190805190602001906108b39291906112cc565b5060008082815481106108c9576108c8611c07565b5b90600052602060002090600402016003018190555050505050565b6000825111610928576040517f08c379a000000000000000000000000000000000000000000000000000000000815260040161091f906118e9565b60405180910390fd5b60008080600090505b6000805490508110156109d1578460405160200161094f9190611744565b604051602081830303815290604052805190602001206000828154811061097957610978611c07565b5b906000526020600020906004020160000160405160200161099a919061175b565b6040516020818303038152906040528051906020012014156109be57600192508091505b80806109c990611b60565b915050610931565b5081610a12576040517f08c379a0000000000000000000000000000000000000000000000000000000008152600401610a0990611929565b60405180910390fd5b8260008281548110610a2757610a26611c07565b5b90600052602060002090600402016003016000828254610a479190611a5b565b9250508190555050505050565b6000815111610a98576040517f08c379a0000000000000000000000000000000000000000000000000000000008152600401610a8f906118e9565b60405180910390fd5b6000805b600080549050811015610b395782604051602001610aba9190611744565b6040516020818303038152906040528051906020012060008281548110610ae457610ae3611c07565b5b9060005260206000209060040201600001604051602001610b05919061175b565b604051602081830303815290604052805190602001201415610b2657600191505b8080610b3190611b60565b915050610a9c565b5080610b7a576040517f08c379a0000000000000000000000000000000000000000000000000000000008152600401610b7190611929565b60405180910390fd5b60005b600080549050811015610e515782604051602001610b9b9190611744565b6040516020818303038152906040528051906020012060008281548110610bc557610bc4611c07565b5b9060005260206000209060040201600001604051602001610be6919061175b565b604051602081830303815290604052805190602001201415610e3e57610cee6040518060400160405280600d81526020017f437573746f6d657273206f66200000000000000000000000000000000000000081525060008381548110610c4f57610c4e611c07565b5b90600052602060002090600402016000018054610c6b90611afd565b80601f0160208091040260200160405190810160405280929190818152602001828054610c9790611afd565b8015610ce45780601f10610cb957610100808354040283529160200191610ce4565b820191906000526020600020905b815481529060010190602001808311610cc757829003601f168201915b5050505050611207565b60005b60008281548110610d0557610d04611c07565b5b906000526020600020906004020160020180549050811015610e3c57610e296040518060400160405280600981526020017f437573746f6d657220000000000000000000000000000000000000000000000081525060008481548110610d6e57610d6d611c07565b5b90600052602060002090600402016002018381548110610d9157610d90611c07565b5b906000526020600020018054610da690611afd565b80601f0160208091040260200160405190810160405280929190818152602001828054610dd290611afd565b8015610e1f5780601f10610df457610100808354040283529160200191610e1f565b820191906000526020600020905b815481529060010190602001808311610e0257829003601f168201915b5050505050611207565b8080610e3490611b60565b915050610cf1565b505b8080610e4990611b60565b915050610b7d565b505050565b6000825111610e9a576040517f08c379a0000000000000000000000000000000000000000000000000000000008152600401610e91906118a9565b60405180910390fd5b6000815111610ede576040517f08c379a0000000000000000000000000000000000000000000000000000000008152600401610ed590611989565b60405180910390fd5b6000805b600080549050811015610fde5783604051602001610f009190611744565b6040516020818303038152906040528051906020012060008281548110610f2a57610f29611c07565b5b9060005260206000209060040201600001604051602001610f4b919061175b565b604051602081830303815290604052805190602001201415610fcb5760008181548110610f7b57610f7a611c07565b5b906000526020600020906004020160020183908060018154018082558091505060019003906000526020600020016000909190919091509080519060200190610fc59291906112cc565b50600191505b8080610fd690611b60565b915050610ee2565b508061101f576040517f08c379a000000000000000000000000000000000000000000000000000000000815260040161101690611929565b60405180910390fd5b505050565b6110c08484848460405160240161103e94939291906117a9565b6040516020818303038152906040527fde68f20a000000000000000000000000000000000000000000000000000000007bffffffffffffffffffffffffffffffffffffffffffffffffffffffff19166020820180517bffffffffffffffffffffffffffffffffffffffffffffffffffffffff83818316178352505050506112a3565b50505050565b6111608383836040516024016110de93929190611864565b6040516020818303038152906040527f5970e089000000000000000000000000000000000000000000000000000000007bffffffffffffffffffffffffffffffffffffffffffffffffffffffff19166020820180517bffffffffffffffffffffffffffffffffffffffffffffffffffffffff83818316178352505050506112a3565b505050565b6112018484848460405160240161117f949392919061180a565b6040516020818303038152906040527f8eafb02b000000000000000000000000000000000000000000000000000000007bffffffffffffffffffffffffffffffffffffffffffffffffffffffff19166020820180517bffffffffffffffffffffffffffffffffffffffffffffffffffffffff83818316178352505050506112a3565b50505050565b61129f828260405160240161121d929190611772565b6040516020818303038152906040527f4b5c4277000000000000000000000000000000000000000000000000000000007bffffffffffffffffffffffffffffffffffffffffffffffffffffffff19166020820180517bffffffffffffffffffffffffffffffffffffffffffffffffffffffff83818316178352505050506112a3565b5050565b60008151905060006a636f6e736f6c652e6c6f679050602083016000808483855afa5050505050565b8280546112d890611afd565b90600052602060002090601f0160209004810192826112fa5760008555611341565b82601f1061131357805160ff1916838001178555611341565b82800160010185558215611341579182015b82811115611340578251825591602001919060010190611325565b5b50905061134e9190611352565b5090565b5b8082111561136b576000816000905550600101611353565b5090565b600061138261137d846119ee565b6119c9565b90508281526020810184848401111561139e5761139d611c6a565b5b6113a9848285611abb565b509392505050565b600082601f8301126113c6576113c5611c65565b5b81356113d684826020860161136f565b91505092915050565b6000813590506113ee81611e47565b92915050565b60006020828403121561140a57611409611c74565b5b600082013567ffffffffffffffff81111561142857611427611c6f565b5b611434848285016113b1565b91505092915050565b6000806040838503121561145457611453611c74565b5b600083013567ffffffffffffffff81111561147257611471611c6f565b5b61147e858286016113b1565b925050602083013567ffffffffffffffff81111561149f5761149e611c6f565b5b6114ab858286016113b1565b9150509250929050565b600080604083850312156114cc576114cb611c74565b5b600083013567ffffffffffffffff8111156114ea576114e9611c6f565b5b6114f6858286016113b1565b9250506020611507858286016113df565b9150509250929050565b600061151c82611a34565b6115268185611a3f565b9350611536818560208601611aca565b61153f81611c79565b840191505092915050565b600061155582611a34565b61155f8185611a50565b935061156f818560208601611aca565b80840191505092915050565b6000815461158881611afd565b6115928186611a50565b945060018216600081146115ad57600181146115be576115f1565b60ff198316865281860193506115f1565b6115c785611a1f565b60005b838110156115e9578154818901526001820191506020810190506115ca565b838801955050505b50505092915050565b6000611607602483611a3f565b915061161282611c8a565b604082019050919050565b600061162a602483611a3f565b915061163582611cd9565b604082019050919050565b600061164d601a83611a3f565b915061165882611d28565b602082019050919050565b6000611670601a83611a3f565b915061167b82611d51565b602082019050919050565b6000611693601d83611a3f565b915061169e82611d7a565b602082019050919050565b60006116b6601683611a3f565b91506116c182611da3565b602082019050919050565b60006116d9601983611a3f565b91506116e482611dcc565b602082019050919050565b60006116fc601f83611a3f565b915061170782611df5565b602082019050919050565b600061171f601783611a3f565b915061172a82611e1e565b602082019050919050565b61173e81611ab1565b82525050565b6000611750828461154a565b915081905092915050565b6000611767828461157b565b915081905092915050565b6000604082019050818103600083015261178c8185611511565b905081810360208301526117a08184611511565b90509392505050565b600060808201905081810360008301526117c38187611511565b905081810360208301526117d78186611511565b905081810360408301526117eb8185611511565b905081810360608301526117ff8184611511565b905095945050505050565b600060808201905081810360008301526118248187611511565b905081810360208301526118388186611511565b9050818103604083015261184c8185611511565b905061185b6060830184611735565b95945050505050565b6000606082019050818103600083015261187e8186611511565b905061188d6020830185611735565b818103604083015261189f8184611511565b9050949350505050565b600060208201905081810360008301526118c2816115fa565b9050919050565b600060208201905081810360008301526118e28161161d565b9050919050565b6000602082019050818103600083015261190281611640565b9050919050565b6000602082019050818103600083015261192281611663565b9050919050565b6000602082019050818103600083015261194281611686565b9050919050565b60006020820190508181036000830152611962816116a9565b9050919050565b60006020820190508181036000830152611982816116cc565b9050919050565b600060208201905081810360008301526119a2816116ef565b9050919050565b600060208201905081810360008301526119c281611712565b9050919050565b60006119d36119e4565b90506119df8282611b2f565b919050565b6000604051905090565b600067ffffffffffffffff821115611a0957611a08611c36565b5b611a1282611c79565b9050602081019050919050565b60008190508160005260206000209050919050565b600081519050919050565b600082825260208201905092915050565b600081905092915050565b6000611a6682611ab1565b9150611a7183611ab1565b9250827fffffffffffffffffffffffffffffffffffffffffffffffffffffffffffffffff03821115611aa657611aa5611ba9565b5b828201905092915050565b6000819050919050565b82818337600083830152505050565b60005b83811015611ae8578082015181840152602081019050611acd565b83811115611af7576000848401525b50505050565b60006002820490506001821680611b1557607f821691505b60208210811415611b2957611b28611bd8565b5b50919050565b611b3882611c79565b810181811067ffffffffffffffff82111715611b5757611b56611c36565b5b80604052505050565b6000611b6b82611ab1565b91507fffffffffffffffffffffffffffffffffffffffffffffffffffffffffffffffff821415611b9e57611b9d611ba9565b5b600182019050919050565b7f4e487b7100000000000000000000000000000000000000000000000000000000600052601160045260246000fd5b7f4e487b7100000000000000000000000000000000000000000000000000000000600052602260045260246000fd5b7f4e487b7100000000000000000000000000000000000000000000000000000000600052603260045260246000fd5b7f4e487b7100000000000000000000000000000000000000000000000000000000600052604160045260246000fd5b600080fd5b600080fd5b600080fd5b600080fd5b6000601f19601f8301169050919050565b7f6d6173736167697374206e616d652063616e6e6f74206265206c65667420656d60008201527f7074792100000000000000000000000000000000000000000000000000000000602082015250565b7f736572766963652773206e616d652063616e6e6f74206265206c65667420656d60008201527f7074792100000000000000000000000000000000000000000000000000000000602082015250565b7f6e616d652063616e6e6f74206265206c65667420656d70747921000000000000600082015250565b7f4e616d652063616e6e6f74206265206c65667420656d70747921000000000000600082015250565b7f576520646f6e2774206b6e6f772074686973206d617373616769737421000000600082015250565b7f616c726561647920696e207468652073797374656d2100000000000000000000600082015250565b7f4167652063616e6e6f74206265206c65667420656d7074792100000000000000600082015250565b7f596f7572206e616d652063616e6e6f74206265206c65667420656d7074792100600082015250565b7f5365727669636520616c72656164792065787369737421000000000000000000600082015250565b611e5081611ab1565b8114611e5b57600080fd5b5056fea2646970667358221220162c978e98f101513bf5d0f41a149a8f73b5d363922ac344901e4eff406880ac64736f6c63430008070033",
			"opcodes": "PUSH1 0x80 PUSH1 0x40 MSTORE CALLVALUE DUP1 ISZERO PUSH2 0x10 JUMPI PUSH1 0x0 DUP1 REVERT JUMPDEST POP PUSH2 0x1E94 DUP1 PUSH2 0x20 PUSH1 0x0 CODECOPY PUSH1 0x0 RETURN INVALID PUSH1 0x80 PUSH1 0x40 MSTORE PUSH1 0x4 CALLDATASIZE LT PUSH2 0x70 JUMPI PUSH1 0x0 CALLDATALOAD PUSH1 0xE0 SHR DUP1 PUSH4 0x7ABE14BF GT PUSH2 0x4E JUMPI DUP1 PUSH4 0x7ABE14BF EQ PUSH2 0xA5 JUMPI DUP1 PUSH4 0xA4CAAF18 EQ PUSH2 0xC1 JUMPI DUP1 PUSH4 0xAF1D3FF7 EQ PUSH2 0xDD JUMPI DUP1 PUSH4 0xCE30D097 EQ PUSH2 0xF9 JUMPI PUSH2 0x70 JUMP JUMPDEST DUP1 PUSH4 0x2767C33 EQ PUSH2 0x75 JUMPI DUP1 PUSH4 0x123B62E6 EQ PUSH2 0x7F JUMPI DUP1 PUSH4 0x2EECA509 EQ PUSH2 0x89 JUMPI JUMPDEST PUSH1 0x0 DUP1 REVERT JUMPDEST PUSH2 0x7D PUSH2 0x115 JUMP JUMPDEST STOP JUMPDEST PUSH2 0x87 PUSH2 0x3A5 JUMP JUMPDEST STOP JUMPDEST PUSH2 0xA3 PUSH1 0x4 DUP1 CALLDATASIZE SUB DUP2 ADD SWAP1 PUSH2 0x9E SWAP2 SWAP1 PUSH2 0x14B5 JUMP JUMPDEST PUSH2 0x522 JUMP JUMPDEST STOP JUMPDEST PUSH2 0xBF PUSH1 0x4 DUP1 CALLDATASIZE SUB DUP2 ADD SWAP1 PUSH2 0xBA SWAP2 SWAP1 PUSH2 0x143D JUMP JUMPDEST PUSH2 0x6AA JUMP JUMPDEST STOP JUMPDEST PUSH2 0xDB PUSH1 0x4 DUP1 CALLDATASIZE SUB DUP2 ADD SWAP1 PUSH2 0xD6 SWAP2 SWAP1 PUSH2 0x14B5 JUMP JUMPDEST PUSH2 0x8E4 JUMP JUMPDEST STOP JUMPDEST PUSH2 0xF7 PUSH1 0x4 DUP1 CALLDATASIZE SUB DUP2 ADD SWAP1 PUSH2 0xF2 SWAP2 SWAP1 PUSH2 0x13F4 JUMP JUMPDEST PUSH2 0xA54 JUMP JUMPDEST STOP JUMPDEST PUSH2 0x113 PUSH1 0x4 DUP1 CALLDATASIZE SUB DUP2 ADD SWAP1 PUSH2 0x10E SWAP2 SWAP1 PUSH2 0x143D JUMP JUMPDEST PUSH2 0xE56 JUMP JUMPDEST STOP JUMPDEST PUSH1 0x0 JUMPDEST PUSH1 0x0 DUP1 SLOAD SWAP1 POP DUP2 LT ISZERO PUSH2 0x3A2 JUMPI PUSH2 0x2F5 PUSH1 0x40 MLOAD DUP1 PUSH1 0x40 ADD PUSH1 0x40 MSTORE DUP1 PUSH1 0xA DUP2 MSTORE PUSH1 0x20 ADD PUSH32 0x4D61737361676973742000000000000000000000000000000000000000000000 DUP2 MSTORE POP PUSH1 0x0 DUP4 DUP2 SLOAD DUP2 LT PUSH2 0x172 JUMPI PUSH2 0x171 PUSH2 0x1C07 JUMP JUMPDEST JUMPDEST SWAP1 PUSH1 0x0 MSTORE PUSH1 0x20 PUSH1 0x0 KECCAK256 SWAP1 PUSH1 0x4 MUL ADD PUSH1 0x0 ADD DUP1 SLOAD PUSH2 0x18E SWAP1 PUSH2 0x1AFD JUMP JUMPDEST DUP1 PUSH1 0x1F ADD PUSH1 0x20 DUP1 SWAP2 DIV MUL PUSH1 0x20 ADD PUSH1 0x40 MLOAD SWAP1 DUP2 ADD PUSH1 0x40 MSTORE DUP1 SWAP3 SWAP2 SWAP1 DUP2 DUP2 MSTORE PUSH1 0x20 ADD DUP3 DUP1 SLOAD PUSH2 0x1BA SWAP1 PUSH2 0x1AFD JUMP JUMPDEST DUP1 ISZERO PUSH2 0x207 JUMPI DUP1 PUSH1 0x1F LT PUSH2 0x1DC JUMPI PUSH2 0x100 DUP1 DUP4 SLOAD DIV MUL DUP4 MSTORE SWAP2 PUSH1 0x20 ADD SWAP2 PUSH2 0x207 JUMP JUMPDEST DUP3 ADD SWAP2 SWAP1 PUSH1 0x0 MSTORE PUSH1 0x20 PUSH1 0x0 KECCAK256 SWAP1 JUMPDEST DUP2 SLOAD DUP2 MSTORE SWAP1 PUSH1 0x1 ADD SWAP1 PUSH1 0x20 ADD DUP1 DUP4 GT PUSH2 0x1EA JUMPI DUP3 SWAP1 SUB PUSH1 0x1F AND DUP3 ADD SWAP2 JUMPDEST POP POP POP POP POP PUSH1 0x40 MLOAD DUP1 PUSH1 0x40 ADD PUSH1 0x40 MSTORE DUP1 PUSH1 0xF DUP2 MSTORE PUSH1 0x20 ADD PUSH32 0x2061742074686520616765206F66200000000000000000000000000000000000 DUP2 MSTORE POP PUSH1 0x0 DUP6 DUP2 SLOAD DUP2 LT PUSH2 0x256 JUMPI PUSH2 0x255 PUSH2 0x1C07 JUMP JUMPDEST JUMPDEST SWAP1 PUSH1 0x0 MSTORE PUSH1 0x20 PUSH1 0x0 KECCAK256 SWAP1 PUSH1 0x4 MUL ADD PUSH1 0x1 ADD DUP1 SLOAD PUSH2 0x272 SWAP1 PUSH2 0x1AFD JUMP JUMPDEST DUP1 PUSH1 0x1F ADD PUSH1 0x20 DUP1 SWAP2 DIV MUL PUSH1 0x20 ADD PUSH1 0x40 MLOAD SWAP1 DUP2 ADD PUSH1 0x40 MSTORE DUP1 SWAP3 SWAP2 SWAP1 DUP2 DUP2 MSTORE PUSH1 0x20 ADD DUP3 DUP1 SLOAD PUSH2 0x29E SWAP1 PUSH2 0x1AFD JUMP JUMPDEST DUP1 ISZERO PUSH2 0x2EB JUMPI DUP1 PUSH1 0x1F LT PUSH2 0x2C0 JUMPI PUSH2 0x100 DUP1 DUP4 SLOAD DIV MUL DUP4 MSTORE SWAP2 PUSH1 0x20 ADD SWAP2 PUSH2 0x2EB JUMP JUMPDEST DUP3 ADD SWAP2 SWAP1 PUSH1 0x0 MSTORE PUSH1 0x20 PUSH1 0x0 KECCAK256 SWAP1 JUMPDEST DUP2 SLOAD DUP2 MSTORE SWAP1 PUSH1 0x1 ADD SWAP1 PUSH1 0x20 ADD DUP1 DUP4 GT PUSH2 0x2CE JUMPI DUP3 SWAP1 SUB PUSH1 0x1F AND DUP3 ADD SWAP2 JUMPDEST POP POP POP POP POP PUSH2 0x1024 JUMP JUMPDEST PUSH2 0x38F PUSH1 0x40 MLOAD DUP1 PUSH1 0x40 ADD PUSH1 0x40 MSTORE DUP1 PUSH1 0xF DUP2 MSTORE PUSH1 0x20 ADD PUSH32 0x48652873686529206561726E6564200000000000000000000000000000000000 DUP2 MSTORE POP PUSH1 0x0 DUP4 DUP2 SLOAD DUP2 LT PUSH2 0x342 JUMPI PUSH2 0x341 PUSH2 0x1C07 JUMP JUMPDEST JUMPDEST SWAP1 PUSH1 0x0 MSTORE PUSH1 0x20 PUSH1 0x0 KECCAK256 SWAP1 PUSH1 0x4 MUL ADD PUSH1 0x3 ADD SLOAD PUSH1 0x40 MLOAD DUP1 PUSH1 0x40 ADD PUSH1 0x40 MSTORE DUP1 PUSH1 0x3 DUP2 MSTORE PUSH1 0x20 ADD PUSH32 0x6574680000000000000000000000000000000000000000000000000000000000 DUP2 MSTORE POP PUSH2 0x10C6 JUMP JUMPDEST DUP1 DUP1 PUSH2 0x39A SWAP1 PUSH2 0x1B60 JUMP JUMPDEST SWAP2 POP POP PUSH2 0x118 JUMP JUMPDEST POP JUMP JUMPDEST PUSH1 0x0 JUMPDEST PUSH1 0x2 DUP1 SLOAD SWAP1 POP DUP2 LT ISZERO PUSH2 0x51F JUMPI PUSH2 0x50C PUSH1 0x40 MLOAD DUP1 PUSH1 0x40 ADD PUSH1 0x40 MSTORE DUP1 PUSH1 0x8 DUP2 MSTORE PUSH1 0x20 ADD PUSH32 0x5365727669766520000000000000000000000000000000000000000000000000 DUP2 MSTORE POP PUSH1 0x2 DUP4 DUP2 SLOAD DUP2 LT PUSH2 0x402 JUMPI PUSH2 0x401 PUSH2 0x1C07 JUMP JUMPDEST JUMPDEST SWAP1 PUSH1 0x0 MSTORE PUSH1 0x20 PUSH1 0x0 KECCAK256 ADD DUP1 SLOAD PUSH2 0x417 SWAP1 PUSH2 0x1AFD JUMP JUMPDEST DUP1 PUSH1 0x1F ADD PUSH1 0x20 DUP1 SWAP2 DIV MUL PUSH1 0x20 ADD PUSH1 0x40 MLOAD SWAP1 DUP2 ADD PUSH1 0x40 MSTORE DUP1 SWAP3 SWAP2 SWAP1 DUP2 DUP2 MSTORE PUSH1 0x20 ADD DUP3 DUP1 SLOAD PUSH2 0x443 SWAP1 PUSH2 0x1AFD JUMP JUMPDEST DUP1 ISZERO PUSH2 0x490 JUMPI DUP1 PUSH1 0x1F LT PUSH2 0x465 JUMPI PUSH2 0x100 DUP1 DUP4 SLOAD DIV MUL DUP4 MSTORE SWAP2 PUSH1 0x20 ADD SWAP2 PUSH2 0x490 JUMP JUMPDEST DUP3 ADD SWAP2 SWAP1 PUSH1 0x0 MSTORE PUSH1 0x20 PUSH1 0x0 KECCAK256 SWAP1 JUMPDEST DUP2 SLOAD DUP2 MSTORE SWAP1 PUSH1 0x1 ADD SWAP1 PUSH1 0x20 ADD DUP1 DUP4 GT PUSH2 0x473 JUMPI DUP3 SWAP1 SUB PUSH1 0x1F AND DUP3 ADD SWAP2 JUMPDEST POP POP POP POP POP PUSH1 0x40 MLOAD DUP1 PUSH1 0x40 ADD PUSH1 0x40 MSTORE DUP1 PUSH1 0x11 DUP2 MSTORE PUSH1 0x20 ADD PUSH32 0x20617420746865207072696365206F6620000000000000000000000000000000 DUP2 MSTORE POP PUSH1 0x1 PUSH1 0x2 DUP7 DUP2 SLOAD DUP2 LT PUSH2 0x4E1 JUMPI PUSH2 0x4E0 PUSH2 0x1C07 JUMP JUMPDEST JUMPDEST SWAP1 PUSH1 0x0 MSTORE PUSH1 0x20 PUSH1 0x0 KECCAK256 ADD PUSH1 0x40 MLOAD PUSH2 0x4F8 SWAP2 SWAP1 PUSH2 0x175B JUMP JUMPDEST SWAP1 DUP2 MSTORE PUSH1 0x20 ADD PUSH1 0x40 MLOAD DUP1 SWAP2 SUB SWAP1 KECCAK256 SLOAD PUSH2 0x1165 JUMP JUMPDEST DUP1 DUP1 PUSH2 0x517 SWAP1 PUSH2 0x1B60 JUMP JUMPDEST SWAP2 POP POP PUSH2 0x3A8 JUMP JUMPDEST POP JUMP JUMPDEST PUSH1 0x0 DUP3 MLOAD GT PUSH2 0x566 JUMPI PUSH1 0x40 MLOAD PUSH32 0x8C379A000000000000000000000000000000000000000000000000000000000 DUP2 MSTORE PUSH1 0x4 ADD PUSH2 0x55D SWAP1 PUSH2 0x18C9 JUMP JUMPDEST PUSH1 0x40 MLOAD DUP1 SWAP2 SUB SWAP1 REVERT JUMPDEST PUSH1 0x0 PUSH1 0x1 SWAP1 POP PUSH1 0x0 JUMPDEST PUSH1 0x2 DUP1 SLOAD SWAP1 POP DUP2 LT ISZERO PUSH2 0x605 JUMPI DUP4 PUSH1 0x40 MLOAD PUSH1 0x20 ADD PUSH2 0x58D SWAP2 SWAP1 PUSH2 0x1744 JUMP JUMPDEST PUSH1 0x40 MLOAD PUSH1 0x20 DUP2 DUP4 SUB SUB DUP2 MSTORE SWAP1 PUSH1 0x40 MSTORE DUP1 MLOAD SWAP1 PUSH1 0x20 ADD KECCAK256 PUSH1 0x2 DUP3 DUP2 SLOAD DUP2 LT PUSH2 0x5B7 JUMPI PUSH2 0x5B6 PUSH2 0x1C07 JUMP JUMPDEST JUMPDEST SWAP1 PUSH1 0x0 MSTORE PUSH1 0x20 PUSH1 0x0 KECCAK256 ADD PUSH1 0x40 MLOAD PUSH1 0x20 ADD PUSH2 0x5D1 SWAP2 SWAP1 PUSH2 0x175B JUMP JUMPDEST PUSH1 0x40 MLOAD PUSH1 0x20 DUP2 DUP4 SUB SUB DUP2 MSTORE SWAP1 PUSH1 0x40 MSTORE DUP1 MLOAD SWAP1 PUSH1 0x20 ADD KECCAK256 EQ ISZERO PUSH2 0x5F2 JUMPI PUSH1 0x0 SWAP2 POP JUMPDEST DUP1 DUP1 PUSH2 0x5FD SWAP1 PUSH2 0x1B60 JUMP JUMPDEST SWAP2 POP POP PUSH2 0x56F JUMP JUMPDEST POP DUP1 PUSH2 0x646 JUMPI PUSH1 0x40 MLOAD PUSH32 0x8C379A000000000000000000000000000000000000000000000000000000000 DUP2 MSTORE PUSH1 0x4 ADD PUSH2 0x63D SWAP1 PUSH2 0x19A9 JUMP JUMPDEST PUSH1 0x40 MLOAD DUP1 SWAP2 SUB SWAP1 REVERT JUMPDEST DUP2 PUSH1 0x1 DUP5 PUSH1 0x40 MLOAD PUSH2 0x657 SWAP2 SWAP1 PUSH2 0x1744 JUMP JUMPDEST SWAP1 DUP2 MSTORE PUSH1 0x20 ADD PUSH1 0x40 MLOAD DUP1 SWAP2 SUB SWAP1 KECCAK256 DUP2 SWAP1 SSTORE POP PUSH1 0x2 DUP4 SWAP1 DUP1 PUSH1 0x1 DUP2 SLOAD ADD DUP1 DUP3 SSTORE DUP1 SWAP2 POP POP PUSH1 0x1 SWAP1 SUB SWAP1 PUSH1 0x0 MSTORE PUSH1 0x20 PUSH1 0x0 KECCAK256 ADD PUSH1 0x0 SWAP1 SWAP2 SWAP1 SWAP2 SWAP1 SWAP2 POP SWAP1 DUP1 MLOAD SWAP1 PUSH1 0x20 ADD SWAP1 PUSH2 0x6A4 SWAP3 SWAP2 SWAP1 PUSH2 0x12CC JUMP JUMPDEST POP POP POP POP JUMP JUMPDEST PUSH1 0x0 DUP3 MLOAD GT PUSH2 0x6EE JUMPI PUSH1 0x40 MLOAD PUSH32 0x8C379A000000000000000000000000000000000000000000000000000000000 DUP2 MSTORE PUSH1 0x4 ADD PUSH2 0x6E5 SWAP1 PUSH2 0x1909 JUMP JUMPDEST PUSH1 0x40 MLOAD DUP1 SWAP2 SUB SWAP1 REVERT JUMPDEST PUSH1 0x0 DUP3 MLOAD GT PUSH2 0x732 JUMPI PUSH1 0x40 MLOAD PUSH32 0x8C379A000000000000000000000000000000000000000000000000000000000 DUP2 MSTORE PUSH1 0x4 ADD PUSH2 0x729 SWAP1 PUSH2 0x1969 JUMP JUMPDEST PUSH1 0x40 MLOAD DUP1 SWAP2 SUB SWAP1 REVERT JUMPDEST PUSH1 0x0 PUSH1 0x1 SWAP1 POP PUSH1 0x0 JUMPDEST PUSH1 0x0 DUP1 SLOAD SWAP1 POP DUP2 LT ISZERO PUSH2 0x7D8 JUMPI PUSH1 0x0 DUP2 DUP2 SLOAD DUP2 LT PUSH2 0x75C JUMPI PUSH2 0x75B PUSH2 0x1C07 JUMP JUMPDEST JUMPDEST SWAP1 PUSH1 0x0 MSTORE PUSH1 0x20 PUSH1 0x0 KECCAK256 SWAP1 PUSH1 0x4 MUL ADD PUSH1 0x0 ADD PUSH1 0x40 MLOAD PUSH1 0x20 ADD PUSH2 0x77D SWAP2 SWAP1 PUSH2 0x175B JUMP JUMPDEST PUSH1 0x40 MLOAD PUSH1 0x20 DUP2 DUP4 SUB SUB DUP2 MSTORE SWAP1 PUSH1 0x40 MSTORE DUP1 MLOAD SWAP1 PUSH1 0x20 ADD KECCAK256 DUP5 PUSH1 0x40 MLOAD PUSH1 0x20 ADD PUSH2 0x7A4 SWAP2 SWAP1 PUSH2 0x1744 JUMP JUMPDEST PUSH1 0x40 MLOAD PUSH1 0x20 DUP2 DUP4 SUB SUB DUP2 MSTORE SWAP1 PUSH1 0x40 MSTORE DUP1 MLOAD SWAP1 PUSH1 0x20 ADD KECCAK256 EQ ISZERO PUSH2 0x7C5 JUMPI PUSH1 0x0 SWAP2 POP JUMPDEST DUP1 DUP1 PUSH2 0x7D0 SWAP1 PUSH2 0x1B60 JUMP JUMPDEST SWAP2 POP POP PUSH2 0x73B JUMP JUMPDEST POP DUP1 PUSH2 0x819 JUMPI PUSH1 0x40 MLOAD PUSH32 0x8C379A000000000000000000000000000000000000000000000000000000000 DUP2 MSTORE PUSH1 0x4 ADD PUSH2 0x810 SWAP1 PUSH2 0x1949 JUMP JUMPDEST PUSH1 0x40 MLOAD DUP1 SWAP2 SUB SWAP1 REVERT JUMPDEST PUSH1 0x0 DUP1 DUP1 SLOAD SWAP1 POP SWAP1 POP PUSH1 0x0 PUSH1 0x1 DUP2 PUSH1 0x1 DUP2 SLOAD ADD DUP1 DUP3 SSTORE DUP1 SWAP2 POP POP SUB SWAP1 PUSH1 0x0 MSTORE PUSH1 0x20 PUSH1 0x0 KECCAK256 SWAP1 POP POP DUP4 PUSH1 0x0 DUP3 DUP2 SLOAD DUP2 LT PUSH2 0x855 JUMPI PUSH2 0x854 PUSH2 0x1C07 JUMP JUMPDEST JUMPDEST SWAP1 PUSH1 0x0 MSTORE PUSH1 0x20 PUSH1 0x0 KECCAK256 SWAP1 PUSH1 0x4 MUL ADD PUSH1 0x0 ADD SWAP1 DUP1 MLOAD SWAP1 PUSH1 0x20 ADD SWAP1 PUSH2 0x879 SWAP3 SWAP2 SWAP1 PUSH2 0x12CC JUMP JUMPDEST POP DUP3 PUSH1 0x0 DUP3 DUP2 SLOAD DUP2 LT PUSH2 0x88F JUMPI PUSH2 0x88E PUSH2 0x1C07 JUMP JUMPDEST JUMPDEST SWAP1 PUSH1 0x0 MSTORE PUSH1 0x20 PUSH1 0x0 KECCAK256 SWAP1 PUSH1 0x4 MUL ADD PUSH1 0x1 ADD SWAP1 DUP1 MLOAD SWAP1 PUSH1 0x20 ADD SWAP1 PUSH2 0x8B3 SWAP3 SWAP2 SWAP1 PUSH2 0x12CC JUMP JUMPDEST POP PUSH1 0x0 DUP1 DUP3 DUP2 SLOAD DUP2 LT PUSH2 0x8C9 JUMPI PUSH2 0x8C8 PUSH2 0x1C07 JUMP JUMPDEST JUMPDEST SWAP1 PUSH1 0x0 MSTORE PUSH1 0x20 PUSH1 0x0 KECCAK256 SWAP1 PUSH1 0x4 MUL ADD PUSH1 0x3 ADD DUP2 SWAP1 SSTORE POP POP POP POP POP JUMP JUMPDEST PUSH1 0x0 DUP3 MLOAD GT PUSH2 0x928 JUMPI PUSH1 0x40 MLOAD PUSH32 0x8C379A000000000000000000000000000000000000000000000000000000000 DUP2 MSTORE PUSH1 0x4 ADD PUSH2 0x91F SWAP1 PUSH2 0x18E9 JUMP JUMPDEST PUSH1 0x40 MLOAD DUP1 SWAP2 SUB SWAP1 REVERT JUMPDEST PUSH1 0x0 DUP1 DUP1 PUSH1 0x0 SWAP1 POP JUMPDEST PUSH1 0x0 DUP1 SLOAD SWAP1 POP DUP2 LT ISZERO PUSH2 0x9D1 JUMPI DUP5 PUSH1 0x40 MLOAD PUSH1 0x20 ADD PUSH2 0x94F SWAP2 SWAP1 PUSH2 0x1744 JUMP JUMPDEST PUSH1 0x40 MLOAD PUSH1 0x20 DUP2 DUP4 SUB SUB DUP2 MSTORE SWAP1 PUSH1 0x40 MSTORE DUP1 MLOAD SWAP1 PUSH1 0x20 ADD KECCAK256 PUSH1 0x0 DUP3 DUP2 SLOAD DUP2 LT PUSH2 0x979 JUMPI PUSH2 0x978 PUSH2 0x1C07 JUMP JUMPDEST JUMPDEST SWAP1 PUSH1 0x0 MSTORE PUSH1 0x20 PUSH1 0x0 KECCAK256 SWAP1 PUSH1 0x4 MUL ADD PUSH1 0x0 ADD PUSH1 0x40 MLOAD PUSH1 0x20 ADD PUSH2 0x99A SWAP2 SWAP1 PUSH2 0x175B JUMP JUMPDEST PUSH1 0x40 MLOAD PUSH1 0x20 DUP2 DUP4 SUB SUB DUP2 MSTORE SWAP1 PUSH1 0x40 MSTORE DUP1 MLOAD SWAP1 PUSH1 0x20 ADD KECCAK256 EQ ISZERO PUSH2 0x9BE JUMPI PUSH1 0x1 SWAP3 POP DUP1 SWAP2 POP JUMPDEST DUP1 DUP1 PUSH2 0x9C9 SWAP1 PUSH2 0x1B60 JUMP JUMPDEST SWAP2 POP POP PUSH2 0x931 JUMP JUMPDEST POP DUP2 PUSH2 0xA12 JUMPI PUSH1 0x40 MLOAD PUSH32 0x8C379A000000000000000000000000000000000000000000000000000000000 DUP2 MSTORE PUSH1 0x4 ADD PUSH2 0xA09 SWAP1 PUSH2 0x1929 JUMP JUMPDEST PUSH1 0x40 MLOAD DUP1 SWAP2 SUB SWAP1 REVERT JUMPDEST DUP3 PUSH1 0x0 DUP3 DUP2 SLOAD DUP2 LT PUSH2 0xA27 JUMPI PUSH2 0xA26 PUSH2 0x1C07 JUMP JUMPDEST JUMPDEST SWAP1 PUSH1 0x0 MSTORE PUSH1 0x20 PUSH1 0x0 KECCAK256 SWAP1 PUSH1 0x4 MUL ADD PUSH1 0x3 ADD PUSH1 0x0 DUP3 DUP3 SLOAD PUSH2 0xA47 SWAP2 SWAP1 PUSH2 0x1A5B JUMP JUMPDEST SWAP3 POP POP DUP2 SWAP1 SSTORE POP POP POP POP POP JUMP JUMPDEST PUSH1 0x0 DUP2 MLOAD GT PUSH2 0xA98 JUMPI PUSH1 0x40 MLOAD PUSH32 0x8C379A000000000000000000000000000000000000000000000000000000000 DUP2 MSTORE PUSH1 0x4 ADD PUSH2 0xA8F SWAP1 PUSH2 0x18E9 JUMP JUMPDEST PUSH1 0x40 MLOAD DUP1 SWAP2 SUB SWAP1 REVERT JUMPDEST PUSH1 0x0 DUP1 JUMPDEST PUSH1 0x0 DUP1 SLOAD SWAP1 POP DUP2 LT ISZERO PUSH2 0xB39 JUMPI DUP3 PUSH1 0x40 MLOAD PUSH1 0x20 ADD PUSH2 0xABA SWAP2 SWAP1 PUSH2 0x1744 JUMP JUMPDEST PUSH1 0x40 MLOAD PUSH1 0x20 DUP2 DUP4 SUB SUB DUP2 MSTORE SWAP1 PUSH1 0x40 MSTORE DUP1 MLOAD SWAP1 PUSH1 0x20 ADD KECCAK256 PUSH1 0x0 DUP3 DUP2 SLOAD DUP2 LT PUSH2 0xAE4 JUMPI PUSH2 0xAE3 PUSH2 0x1C07 JUMP JUMPDEST JUMPDEST SWAP1 PUSH1 0x0 MSTORE PUSH1 0x20 PUSH1 0x0 KECCAK256 SWAP1 PUSH1 0x4 MUL ADD PUSH1 0x0 ADD PUSH1 0x40 MLOAD PUSH1 0x20 ADD PUSH2 0xB05 SWAP2 SWAP1 PUSH2 0x175B JUMP JUMPDEST PUSH1 0x40 MLOAD PUSH1 0x20 DUP2 DUP4 SUB SUB DUP2 MSTORE SWAP1 PUSH1 0x40 MSTORE DUP1 MLOAD SWAP1 PUSH1 0x20 ADD KECCAK256 EQ ISZERO PUSH2 0xB26 JUMPI PUSH1 0x1 SWAP2 POP JUMPDEST DUP1 DUP1 PUSH2 0xB31 SWAP1 PUSH2 0x1B60 JUMP JUMPDEST SWAP2 POP POP PUSH2 0xA9C JUMP JUMPDEST POP DUP1 PUSH2 0xB7A JUMPI PUSH1 0x40 MLOAD PUSH32 0x8C379A000000000000000000000000000000000000000000000000000000000 DUP2 MSTORE PUSH1 0x4 ADD PUSH2 0xB71 SWAP1 PUSH2 0x1929 JUMP JUMPDEST PUSH1 0x40 MLOAD DUP1 SWAP2 SUB SWAP1 REVERT JUMPDEST PUSH1 0x0 JUMPDEST PUSH1 0x0 DUP1 SLOAD SWAP1 POP DUP2 LT ISZERO PUSH2 0xE51 JUMPI DUP3 PUSH1 0x40 MLOAD PUSH1 0x20 ADD PUSH2 0xB9B SWAP2 SWAP1 PUSH2 0x1744 JUMP JUMPDEST PUSH1 0x40 MLOAD PUSH1 0x20 DUP2 DUP4 SUB SUB DUP2 MSTORE SWAP1 PUSH1 0x40 MSTORE DUP1 MLOAD SWAP1 PUSH1 0x20 ADD KECCAK256 PUSH1 0x0 DUP3 DUP2 SLOAD DUP2 LT PUSH2 0xBC5 JUMPI PUSH2 0xBC4 PUSH2 0x1C07 JUMP JUMPDEST JUMPDEST SWAP1 PUSH1 0x0 MSTORE PUSH1 0x20 PUSH1 0x0 KECCAK256 SWAP1 PUSH1 0x4 MUL ADD PUSH1 0x0 ADD PUSH1 0x40 MLOAD PUSH1 0x20 ADD PUSH2 0xBE6 SWAP2 SWAP1 PUSH2 0x175B JUMP JUMPDEST PUSH1 0x40 MLOAD PUSH1 0x20 DUP2 DUP4 SUB SUB DUP2 MSTORE SWAP1 PUSH1 0x40 MSTORE DUP1 MLOAD SWAP1 PUSH1 0x20 ADD KECCAK256 EQ ISZERO PUSH2 0xE3E JUMPI PUSH2 0xCEE PUSH1 0x40 MLOAD DUP1 PUSH1 0x40 ADD PUSH1 0x40 MSTORE DUP1 PUSH1 0xD DUP2 MSTORE PUSH1 0x20 ADD PUSH32 0x437573746F6D657273206F662000000000000000000000000000000000000000 DUP2 MSTORE POP PUSH1 0x0 DUP4 DUP2 SLOAD DUP2 LT PUSH2 0xC4F JUMPI PUSH2 0xC4E PUSH2 0x1C07 JUMP JUMPDEST JUMPDEST SWAP1 PUSH1 0x0 MSTORE PUSH1 0x20 PUSH1 0x0 KECCAK256 SWAP1 PUSH1 0x4 MUL ADD PUSH1 0x0 ADD DUP1 SLOAD PUSH2 0xC6B SWAP1 PUSH2 0x1AFD JUMP JUMPDEST DUP1 PUSH1 0x1F ADD PUSH1 0x20 DUP1 SWAP2 DIV MUL PUSH1 0x20 ADD PUSH1 0x40 MLOAD SWAP1 DUP2 ADD PUSH1 0x40 MSTORE DUP1 SWAP3 SWAP2 SWAP1 DUP2 DUP2 MSTORE PUSH1 0x20 ADD DUP3 DUP1 SLOAD PUSH2 0xC97 SWAP1 PUSH2 0x1AFD JUMP JUMPDEST DUP1 ISZERO PUSH2 0xCE4 JUMPI DUP1 PUSH1 0x1F LT PUSH2 0xCB9 JUMPI PUSH2 0x100 DUP1 DUP4 SLOAD DIV MUL DUP4 MSTORE SWAP2 PUSH1 0x20 ADD SWAP2 PUSH2 0xCE4 JUMP JUMPDEST DUP3 ADD SWAP2 SWAP1 PUSH1 0x0 MSTORE PUSH1 0x20 PUSH1 0x0 KECCAK256 SWAP1 JUMPDEST DUP2 SLOAD DUP2 MSTORE SWAP1 PUSH1 0x1 ADD SWAP1 PUSH1 0x20 ADD DUP1 DUP4 GT PUSH2 0xCC7 JUMPI DUP3 SWAP1 SUB PUSH1 0x1F AND DUP3 ADD SWAP2 JUMPDEST POP POP POP POP POP PUSH2 0x1207 JUMP JUMPDEST PUSH1 0x0 JUMPDEST PUSH1 0x0 DUP3 DUP2 SLOAD DUP2 LT PUSH2 0xD05 JUMPI PUSH2 0xD04 PUSH2 0x1C07 JUMP JUMPDEST JUMPDEST SWAP1 PUSH1 0x0 MSTORE PUSH1 0x20 PUSH1 0x0 KECCAK256 SWAP1 PUSH1 0x4 MUL ADD PUSH1 0x2 ADD DUP1 SLOAD SWAP1 POP DUP2 LT ISZERO PUSH2 0xE3C JUMPI PUSH2 0xE29 PUSH1 0x40 MLOAD DUP1 PUSH1 0x40 ADD PUSH1 0x40 MSTORE DUP1 PUSH1 0x9 DUP2 MSTORE PUSH1 0x20 ADD PUSH32 0x437573746F6D6572200000000000000000000000000000000000000000000000 DUP2 MSTORE POP PUSH1 0x0 DUP5 DUP2 SLOAD DUP2 LT PUSH2 0xD6E JUMPI PUSH2 0xD6D PUSH2 0x1C07 JUMP JUMPDEST JUMPDEST SWAP1 PUSH1 0x0 MSTORE PUSH1 0x20 PUSH1 0x0 KECCAK256 SWAP1 PUSH1 0x4 MUL ADD PUSH1 0x2 ADD DUP4 DUP2 SLOAD DUP2 LT PUSH2 0xD91 JUMPI PUSH2 0xD90 PUSH2 0x1C07 JUMP JUMPDEST JUMPDEST SWAP1 PUSH1 0x0 MSTORE PUSH1 0x20 PUSH1 0x0 KECCAK256 ADD DUP1 SLOAD PUSH2 0xDA6 SWAP1 PUSH2 0x1AFD JUMP JUMPDEST DUP1 PUSH1 0x1F ADD PUSH1 0x20 DUP1 SWAP2 DIV MUL PUSH1 0x20 ADD PUSH1 0x40 MLOAD SWAP1 DUP2 ADD PUSH1 0x40 MSTORE DUP1 SWAP3 SWAP2 SWAP1 DUP2 DUP2 MSTORE PUSH1 0x20 ADD DUP3 DUP1 SLOAD PUSH2 0xDD2 SWAP1 PUSH2 0x1AFD JUMP JUMPDEST DUP1 ISZERO PUSH2 0xE1F JUMPI DUP1 PUSH1 0x1F LT PUSH2 0xDF4 JUMPI PUSH2 0x100 DUP1 DUP4 SLOAD DIV MUL DUP4 MSTORE SWAP2 PUSH1 0x20 ADD SWAP2 PUSH2 0xE1F JUMP JUMPDEST DUP3 ADD SWAP2 SWAP1 PUSH1 0x0 MSTORE PUSH1 0x20 PUSH1 0x0 KECCAK256 SWAP1 JUMPDEST DUP2 SLOAD DUP2 MSTORE SWAP1 PUSH1 0x1 ADD SWAP1 PUSH1 0x20 ADD DUP1 DUP4 GT PUSH2 0xE02 JUMPI DUP3 SWAP1 SUB PUSH1 0x1F AND DUP3 ADD SWAP2 JUMPDEST POP POP POP POP POP PUSH2 0x1207 JUMP JUMPDEST DUP1 DUP1 PUSH2 0xE34 SWAP1 PUSH2 0x1B60 JUMP JUMPDEST SWAP2 POP POP PUSH2 0xCF1 JUMP JUMPDEST POP JUMPDEST DUP1 DUP1 PUSH2 0xE49 SWAP1 PUSH2 0x1B60 JUMP JUMPDEST SWAP2 POP POP PUSH2 0xB7D JUMP JUMPDEST POP POP POP JUMP JUMPDEST PUSH1 0x0 DUP3 MLOAD GT PUSH2 0xE9A JUMPI PUSH1 0x40 MLOAD PUSH32 0x8C379A000000000000000000000000000000000000000000000000000000000 DUP2 MSTORE PUSH1 0x4 ADD PUSH2 0xE91 SWAP1 PUSH2 0x18A9 JUMP JUMPDEST PUSH1 0x40 MLOAD DUP1 SWAP2 SUB SWAP1 REVERT JUMPDEST PUSH1 0x0 DUP2 MLOAD GT PUSH2 0xEDE JUMPI PUSH1 0x40 MLOAD PUSH32 0x8C379A000000000000000000000000000000000000000000000000000000000 DUP2 MSTORE PUSH1 0x4 ADD PUSH2 0xED5 SWAP1 PUSH2 0x1989 JUMP JUMPDEST PUSH1 0x40 MLOAD DUP1 SWAP2 SUB SWAP1 REVERT JUMPDEST PUSH1 0x0 DUP1 JUMPDEST PUSH1 0x0 DUP1 SLOAD SWAP1 POP DUP2 LT ISZERO PUSH2 0xFDE JUMPI DUP4 PUSH1 0x40 MLOAD PUSH1 0x20 ADD PUSH2 0xF00 SWAP2 SWAP1 PUSH2 0x1744 JUMP JUMPDEST PUSH1 0x40 MLOAD PUSH1 0x20 DUP2 DUP4 SUB SUB DUP2 MSTORE SWAP1 PUSH1 0x40 MSTORE DUP1 MLOAD SWAP1 PUSH1 0x20 ADD KECCAK256 PUSH1 0x0 DUP3 DUP2 SLOAD DUP2 LT PUSH2 0xF2A JUMPI PUSH2 0xF29 PUSH2 0x1C07 JUMP JUMPDEST JUMPDEST SWAP1 PUSH1 0x0 MSTORE PUSH1 0x20 PUSH1 0x0 KECCAK256 SWAP1 PUSH1 0x4 MUL ADD PUSH1 0x0 ADD PUSH1 0x40 MLOAD PUSH1 0x20 ADD PUSH2 0xF4B SWAP2 SWAP1 PUSH2 0x175B JUMP JUMPDEST PUSH1 0x40 MLOAD PUSH1 0x20 DUP2 DUP4 SUB SUB DUP2 MSTORE SWAP1 PUSH1 0x40 MSTORE DUP1 MLOAD SWAP1 PUSH1 0x20 ADD KECCAK256 EQ ISZERO PUSH2 0xFCB JUMPI PUSH1 0x0 DUP2 DUP2 SLOAD DUP2 LT PUSH2 0xF7B JUMPI PUSH2 0xF7A PUSH2 0x1C07 JUMP JUMPDEST JUMPDEST SWAP1 PUSH1 0x0 MSTORE PUSH1 0x20 PUSH1 0x0 KECCAK256 SWAP1 PUSH1 0x4 MUL ADD PUSH1 0x2 ADD DUP4 SWAP1 DUP1 PUSH1 0x1 DUP2 SLOAD ADD DUP1 DUP3 SSTORE DUP1 SWAP2 POP POP PUSH1 0x1 SWAP1 SUB SWAP1 PUSH1 0x0 MSTORE PUSH1 0x20 PUSH1 0x0 KECCAK256 ADD PUSH1 0x0 SWAP1 SWAP2 SWAP1 SWAP2 SWAP1 SWAP2 POP SWAP1 DUP1 MLOAD SWAP1 PUSH1 0x20 ADD SWAP1 PUSH2 0xFC5 SWAP3 SWAP2 SWAP1 PUSH2 0x12CC JUMP JUMPDEST POP PUSH1 0x1 SWAP2 POP JUMPDEST DUP1 DUP1 PUSH2 0xFD6 SWAP1 PUSH2 0x1B60 JUMP JUMPDEST SWAP2 POP POP PUSH2 0xEE2 JUMP JUMPDEST POP DUP1 PUSH2 0x101F JUMPI PUSH1 0x40 MLOAD PUSH32 0x8C379A000000000000000000000000000000000000000000000000000000000 DUP2 MSTORE PUSH1 0x4 ADD PUSH2 0x1016 SWAP1 PUSH2 0x1929 JUMP JUMPDEST PUSH1 0x40 MLOAD DUP1 SWAP2 SUB SWAP1 REVERT JUMPDEST POP POP POP JUMP JUMPDEST PUSH2 0x10C0 DUP5 DUP5 DUP5 DUP5 PUSH1 0x40 MLOAD PUSH1 0x24 ADD PUSH2 0x103E SWAP5 SWAP4 SWAP3 SWAP2 SWAP1 PUSH2 0x17A9 JUMP JUMPDEST PUSH1 0x40 MLOAD PUSH1 0x20 DUP2 DUP4 SUB SUB DUP2 MSTORE SWAP1 PUSH1 0x40 MSTORE PUSH32 0xDE68F20A00000000000000000000000000000000000000000000000000000000 PUSH28 0xFFFFFFFFFFFFFFFFFFFFFFFFFFFFFFFFFFFFFFFFFFFFFFFFFFFFFFFF NOT AND PUSH1 0x20 DUP3 ADD DUP1 MLOAD PUSH28 0xFFFFFFFFFFFFFFFFFFFFFFFFFFFFFFFFFFFFFFFFFFFFFFFFFFFFFFFF DUP4 DUP2 DUP4 AND OR DUP4 MSTORE POP POP POP POP PUSH2 0x12A3 JUMP JUMPDEST POP POP POP POP JUMP JUMPDEST PUSH2 0x1160 DUP4 DUP4 DUP4 PUSH1 0x40 MLOAD PUSH1 0x24 ADD PUSH2 0x10DE SWAP4 SWAP3 SWAP2 SWAP1 PUSH2 0x1864 JUMP JUMPDEST PUSH1 0x40 MLOAD PUSH1 0x20 DUP2 DUP4 SUB SUB DUP2 MSTORE SWAP1 PUSH1 0x40 MSTORE PUSH32 0x5970E08900000000000000000000000000000000000000000000000000000000 PUSH28 0xFFFFFFFFFFFFFFFFFFFFFFFFFFFFFFFFFFFFFFFFFFFFFFFFFFFFFFFF NOT AND PUSH1 0x20 DUP3 ADD DUP1 MLOAD PUSH28 0xFFFFFFFFFFFFFFFFFFFFFFFFFFFFFFFFFFFFFFFFFFFFFFFFFFFFFFFF DUP4 DUP2 DUP4 AND OR DUP4 MSTORE POP POP POP POP PUSH2 0x12A3 JUMP JUMPDEST POP POP POP JUMP JUMPDEST PUSH2 0x1201 DUP5 DUP5 DUP5 DUP5 PUSH1 0x40 MLOAD PUSH1 0x24 ADD PUSH2 0x117F SWAP5 SWAP4 SWAP3 SWAP2 SWAP1 PUSH2 0x180A JUMP JUMPDEST PUSH1 0x40 MLOAD PUSH1 0x20 DUP2 DUP4 SUB SUB DUP2 MSTORE SWAP1 PUSH1 0x40 MSTORE PUSH32 0x8EAFB02B00000000000000000000000000000000000000000000000000000000 PUSH28 0xFFFFFFFFFFFFFFFFFFFFFFFFFFFFFFFFFFFFFFFFFFFFFFFFFFFFFFFF NOT AND PUSH1 0x20 DUP3 ADD DUP1 MLOAD PUSH28 0xFFFFFFFFFFFFFFFFFFFFFFFFFFFFFFFFFFFFFFFFFFFFFFFFFFFFFFFF DUP4 DUP2 DUP4 AND OR DUP4 MSTORE POP POP POP POP PUSH2 0x12A3 JUMP JUMPDEST POP POP POP POP JUMP JUMPDEST PUSH2 0x129F DUP3 DUP3 PUSH1 0x40 MLOAD PUSH1 0x24 ADD PUSH2 0x121D SWAP3 SWAP2 SWAP1 PUSH2 0x1772 JUMP JUMPDEST PUSH1 0x40 MLOAD PUSH1 0x20 DUP2 DUP4 SUB SUB DUP2 MSTORE SWAP1 PUSH1 0x40 MSTORE PUSH32 0x4B5C427700000000000000000000000000000000000000000000000000000000 PUSH28 0xFFFFFFFFFFFFFFFFFFFFFFFFFFFFFFFFFFFFFFFFFFFFFFFFFFFFFFFF NOT AND PUSH1 0x20 DUP3 ADD DUP1 MLOAD PUSH28 0xFFFFFFFFFFFFFFFFFFFFFFFFFFFFFFFFFFFFFFFFFFFFFFFFFFFFFFFF DUP4 DUP2 DUP4 AND OR DUP4 MSTORE POP POP POP POP PUSH2 0x12A3 JUMP JUMPDEST POP POP JUMP JUMPDEST PUSH1 0x0 DUP2 MLOAD SWAP1 POP PUSH1 0x0 PUSH11 0x636F6E736F6C652E6C6F67 SWAP1 POP PUSH1 0x20 DUP4 ADD PUSH1 0x0 DUP1 DUP5 DUP4 DUP6 GAS STATICCALL POP POP POP POP POP JUMP JUMPDEST DUP3 DUP1 SLOAD PUSH2 0x12D8 SWAP1 PUSH2 0x1AFD JUMP JUMPDEST SWAP1 PUSH1 0x0 MSTORE PUSH1 0x20 PUSH1 0x0 KECCAK256 SWAP1 PUSH1 0x1F ADD PUSH1 0x20 SWAP1 DIV DUP2 ADD SWAP3 DUP3 PUSH2 0x12FA JUMPI PUSH1 0x0 DUP6 SSTORE PUSH2 0x1341 JUMP JUMPDEST DUP3 PUSH1 0x1F LT PUSH2 0x1313 JUMPI DUP1 MLOAD PUSH1 0xFF NOT AND DUP4 DUP1 ADD OR DUP6 SSTORE PUSH2 0x1341 JUMP JUMPDEST DUP3 DUP1 ADD PUSH1 0x1 ADD DUP6 SSTORE DUP3 ISZERO PUSH2 0x1341 JUMPI SWAP2 DUP3 ADD JUMPDEST DUP3 DUP2 GT ISZERO PUSH2 0x1340 JUMPI DUP3 MLOAD DUP3 SSTORE SWAP2 PUSH1 0x20 ADD SWAP2 SWAP1 PUSH1 0x1 ADD SWAP1 PUSH2 0x1325 JUMP JUMPDEST JUMPDEST POP SWAP1 POP PUSH2 0x134E SWAP2 SWAP1 PUSH2 0x1352 JUMP JUMPDEST POP SWAP1 JUMP JUMPDEST JUMPDEST DUP1 DUP3 GT ISZERO PUSH2 0x136B JUMPI PUSH1 0x0 DUP2 PUSH1 0x0 SWAP1 SSTORE POP PUSH1 0x1 ADD PUSH2 0x1353 JUMP JUMPDEST POP SWAP1 JUMP JUMPDEST PUSH1 0x0 PUSH2 0x1382 PUSH2 0x137D DUP5 PUSH2 0x19EE JUMP JUMPDEST PUSH2 0x19C9 JUMP JUMPDEST SWAP1 POP DUP3 DUP2 MSTORE PUSH1 0x20 DUP2 ADD DUP5 DUP5 DUP5 ADD GT ISZERO PUSH2 0x139E JUMPI PUSH2 0x139D PUSH2 0x1C6A JUMP JUMPDEST JUMPDEST PUSH2 0x13A9 DUP5 DUP3 DUP6 PUSH2 0x1ABB JUMP JUMPDEST POP SWAP4 SWAP3 POP POP POP JUMP JUMPDEST PUSH1 0x0 DUP3 PUSH1 0x1F DUP4 ADD SLT PUSH2 0x13C6 JUMPI PUSH2 0x13C5 PUSH2 0x1C65 JUMP JUMPDEST JUMPDEST DUP2 CALLDATALOAD PUSH2 0x13D6 DUP5 DUP3 PUSH1 0x20 DUP7 ADD PUSH2 0x136F JUMP JUMPDEST SWAP2 POP POP SWAP3 SWAP2 POP POP JUMP JUMPDEST PUSH1 0x0 DUP2 CALLDATALOAD SWAP1 POP PUSH2 0x13EE DUP2 PUSH2 0x1E47 JUMP JUMPDEST SWAP3 SWAP2 POP POP JUMP JUMPDEST PUSH1 0x0 PUSH1 0x20 DUP3 DUP5 SUB SLT ISZERO PUSH2 0x140A JUMPI PUSH2 0x1409 PUSH2 0x1C74 JUMP JUMPDEST JUMPDEST PUSH1 0x0 DUP3 ADD CALLDATALOAD PUSH8 0xFFFFFFFFFFFFFFFF DUP2 GT ISZERO PUSH2 0x1428 JUMPI PUSH2 0x1427 PUSH2 0x1C6F JUMP JUMPDEST JUMPDEST PUSH2 0x1434 DUP5 DUP3 DUP6 ADD PUSH2 0x13B1 JUMP JUMPDEST SWAP2 POP POP SWAP3 SWAP2 POP POP JUMP JUMPDEST PUSH1 0x0 DUP1 PUSH1 0x40 DUP4 DUP6 SUB SLT ISZERO PUSH2 0x1454 JUMPI PUSH2 0x1453 PUSH2 0x1C74 JUMP JUMPDEST JUMPDEST PUSH1 0x0 DUP4 ADD CALLDATALOAD PUSH8 0xFFFFFFFFFFFFFFFF DUP2 GT ISZERO PUSH2 0x1472 JUMPI PUSH2 0x1471 PUSH2 0x1C6F JUMP JUMPDEST JUMPDEST PUSH2 0x147E DUP6 DUP3 DUP7 ADD PUSH2 0x13B1 JUMP JUMPDEST SWAP3 POP POP PUSH1 0x20 DUP4 ADD CALLDATALOAD PUSH8 0xFFFFFFFFFFFFFFFF DUP2 GT ISZERO PUSH2 0x149F JUMPI PUSH2 0x149E PUSH2 0x1C6F JUMP JUMPDEST JUMPDEST PUSH2 0x14AB DUP6 DUP3 DUP7 ADD PUSH2 0x13B1 JUMP JUMPDEST SWAP2 POP POP SWAP3 POP SWAP3 SWAP1 POP JUMP JUMPDEST PUSH1 0x0 DUP1 PUSH1 0x40 DUP4 DUP6 SUB SLT ISZERO PUSH2 0x14CC JUMPI PUSH2 0x14CB PUSH2 0x1C74 JUMP JUMPDEST JUMPDEST PUSH1 0x0 DUP4 ADD CALLDATALOAD PUSH8 0xFFFFFFFFFFFFFFFF DUP2 GT ISZERO PUSH2 0x14EA JUMPI PUSH2 0x14E9 PUSH2 0x1C6F JUMP JUMPDEST JUMPDEST PUSH2 0x14F6 DUP6 DUP3 DUP7 ADD PUSH2 0x13B1 JUMP JUMPDEST SWAP3 POP POP PUSH1 0x20 PUSH2 0x1507 DUP6 DUP3 DUP7 ADD PUSH2 0x13DF JUMP JUMPDEST SWAP2 POP POP SWAP3 POP SWAP3 SWAP1 POP JUMP JUMPDEST PUSH1 0x0 PUSH2 0x151C DUP3 PUSH2 0x1A34 JUMP JUMPDEST PUSH2 0x1526 DUP2 DUP6 PUSH2 0x1A3F JUMP JUMPDEST SWAP4 POP PUSH2 0x1536 DUP2 DUP6 PUSH1 0x20 DUP7 ADD PUSH2 0x1ACA JUMP JUMPDEST PUSH2 0x153F DUP2 PUSH2 0x1C79 JUMP JUMPDEST DUP5 ADD SWAP2 POP POP SWAP3 SWAP2 POP POP JUMP JUMPDEST PUSH1 0x0 PUSH2 0x1555 DUP3 PUSH2 0x1A34 JUMP JUMPDEST PUSH2 0x155F DUP2 DUP6 PUSH2 0x1A50 JUMP JUMPDEST SWAP4 POP PUSH2 0x156F DUP2 DUP6 PUSH1 0x20 DUP7 ADD PUSH2 0x1ACA JUMP JUMPDEST DUP1 DUP5 ADD SWAP2 POP POP SWAP3 SWAP2 POP POP JUMP JUMPDEST PUSH1 0x0 DUP2 SLOAD PUSH2 0x1588 DUP2 PUSH2 0x1AFD JUMP JUMPDEST PUSH2 0x1592 DUP2 DUP7 PUSH2 0x1A50 JUMP JUMPDEST SWAP5 POP PUSH1 0x1 DUP3 AND PUSH1 0x0 DUP2 EQ PUSH2 0x15AD JUMPI PUSH1 0x1 DUP2 EQ PUSH2 0x15BE JUMPI PUSH2 0x15F1 JUMP JUMPDEST PUSH1 0xFF NOT DUP4 AND DUP7 MSTORE DUP2 DUP7 ADD SWAP4 POP PUSH2 0x15F1 JUMP JUMPDEST PUSH2 0x15C7 DUP6 PUSH2 0x1A1F JUMP JUMPDEST PUSH1 0x0 JUMPDEST DUP4 DUP2 LT ISZERO PUSH2 0x15E9 JUMPI DUP2 SLOAD DUP2 DUP10 ADD MSTORE PUSH1 0x1 DUP3 ADD SWAP2 POP PUSH1 0x20 DUP2 ADD SWAP1 POP PUSH2 0x15CA JUMP JUMPDEST DUP4 DUP9 ADD SWAP6 POP POP POP JUMPDEST POP POP POP SWAP3 SWAP2 POP POP JUMP JUMPDEST PUSH1 0x0 PUSH2 0x1607 PUSH1 0x24 DUP4 PUSH2 0x1A3F JUMP JUMPDEST SWAP2 POP PUSH2 0x1612 DUP3 PUSH2 0x1C8A JUMP JUMPDEST PUSH1 0x40 DUP3 ADD SWAP1 POP SWAP2 SWAP1 POP JUMP JUMPDEST PUSH1 0x0 PUSH2 0x162A PUSH1 0x24 DUP4 PUSH2 0x1A3F JUMP JUMPDEST SWAP2 POP PUSH2 0x1635 DUP3 PUSH2 0x1CD9 JUMP JUMPDEST PUSH1 0x40 DUP3 ADD SWAP1 POP SWAP2 SWAP1 POP JUMP JUMPDEST PUSH1 0x0 PUSH2 0x164D PUSH1 0x1A DUP4 PUSH2 0x1A3F JUMP JUMPDEST SWAP2 POP PUSH2 0x1658 DUP3 PUSH2 0x1D28 JUMP JUMPDEST PUSH1 0x20 DUP3 ADD SWAP1 POP SWAP2 SWAP1 POP JUMP JUMPDEST PUSH1 0x0 PUSH2 0x1670 PUSH1 0x1A DUP4 PUSH2 0x1A3F JUMP JUMPDEST SWAP2 POP PUSH2 0x167B DUP3 PUSH2 0x1D51 JUMP JUMPDEST PUSH1 0x20 DUP3 ADD SWAP1 POP SWAP2 SWAP1 POP JUMP JUMPDEST PUSH1 0x0 PUSH2 0x1693 PUSH1 0x1D DUP4 PUSH2 0x1A3F JUMP JUMPDEST SWAP2 POP PUSH2 0x169E DUP3 PUSH2 0x1D7A JUMP JUMPDEST PUSH1 0x20 DUP3 ADD SWAP1 POP SWAP2 SWAP1 POP JUMP JUMPDEST PUSH1 0x0 PUSH2 0x16B6 PUSH1 0x16 DUP4 PUSH2 0x1A3F JUMP JUMPDEST SWAP2 POP PUSH2 0x16C1 DUP3 PUSH2 0x1DA3 JUMP JUMPDEST PUSH1 0x20 DUP3 ADD SWAP1 POP SWAP2 SWAP1 POP JUMP JUMPDEST PUSH1 0x0 PUSH2 0x16D9 PUSH1 0x19 DUP4 PUSH2 0x1A3F JUMP JUMPDEST SWAP2 POP PUSH2 0x16E4 DUP3 PUSH2 0x1DCC JUMP JUMPDEST PUSH1 0x20 DUP3 ADD SWAP1 POP SWAP2 SWAP1 POP JUMP JUMPDEST PUSH1 0x0 PUSH2 0x16FC PUSH1 0x1F DUP4 PUSH2 0x1A3F JUMP JUMPDEST SWAP2 POP PUSH2 0x1707 DUP3 PUSH2 0x1DF5 JUMP JUMPDEST PUSH1 0x20 DUP3 ADD SWAP1 POP SWAP2 SWAP1 POP JUMP JUMPDEST PUSH1 0x0 PUSH2 0x171F PUSH1 0x17 DUP4 PUSH2 0x1A3F JUMP JUMPDEST SWAP2 POP PUSH2 0x172A DUP3 PUSH2 0x1E1E JUMP JUMPDEST PUSH1 0x20 DUP3 ADD SWAP1 POP SWAP2 SWAP1 POP JUMP JUMPDEST PUSH2 0x173E DUP2 PUSH2 0x1AB1 JUMP JUMPDEST DUP3 MSTORE POP POP JUMP JUMPDEST PUSH1 0x0 PUSH2 0x1750 DUP3 DUP5 PUSH2 0x154A JUMP JUMPDEST SWAP2 POP DUP2 SWAP1 POP SWAP3 SWAP2 POP POP JUMP JUMPDEST PUSH1 0x0 PUSH2 0x1767 DUP3 DUP5 PUSH2 0x157B JUMP JUMPDEST SWAP2 POP DUP2 SWAP1 POP SWAP3 SWAP2 POP POP JUMP JUMPDEST PUSH1 0x0 PUSH1 0x40 DUP3 ADD SWAP1 POP DUP2 DUP2 SUB PUSH1 0x0 DUP4 ADD MSTORE PUSH2 0x178C DUP2 DUP6 PUSH2 0x1511 JUMP JUMPDEST SWAP1 POP DUP2 DUP2 SUB PUSH1 0x20 DUP4 ADD MSTORE PUSH2 0x17A0 DUP2 DUP5 PUSH2 0x1511 JUMP JUMPDEST SWAP1 POP SWAP4 SWAP3 POP POP POP JUMP JUMPDEST PUSH1 0x0 PUSH1 0x80 DUP3 ADD SWAP1 POP DUP2 DUP2 SUB PUSH1 0x0 DUP4 ADD MSTORE PUSH2 0x17C3 DUP2 DUP8 PUSH2 0x1511 JUMP JUMPDEST SWAP1 POP DUP2 DUP2 SUB PUSH1 0x20 DUP4 ADD MSTORE PUSH2 0x17D7 DUP2 DUP7 PUSH2 0x1511 JUMP JUMPDEST SWAP1 POP DUP2 DUP2 SUB PUSH1 0x40 DUP4 ADD MSTORE PUSH2 0x17EB DUP2 DUP6 PUSH2 0x1511 JUMP JUMPDEST SWAP1 POP DUP2 DUP2 SUB PUSH1 0x60 DUP4 ADD MSTORE PUSH2 0x17FF DUP2 DUP5 PUSH2 0x1511 JUMP JUMPDEST SWAP1 POP SWAP6 SWAP5 POP POP POP POP POP JUMP JUMPDEST PUSH1 0x0 PUSH1 0x80 DUP3 ADD SWAP1 POP DUP2 DUP2 SUB PUSH1 0x0 DUP4 ADD MSTORE PUSH2 0x1824 DUP2 DUP8 PUSH2 0x1511 JUMP JUMPDEST SWAP1 POP DUP2 DUP2 SUB PUSH1 0x20 DUP4 ADD MSTORE PUSH2 0x1838 DUP2 DUP7 PUSH2 0x1511 JUMP JUMPDEST SWAP1 POP DUP2 DUP2 SUB PUSH1 0x40 DUP4 ADD MSTORE PUSH2 0x184C DUP2 DUP6 PUSH2 0x1511 JUMP JUMPDEST SWAP1 POP PUSH2 0x185B PUSH1 0x60 DUP4 ADD DUP5 PUSH2 0x1735 JUMP JUMPDEST SWAP6 SWAP5 POP POP POP POP POP JUMP JUMPDEST PUSH1 0x0 PUSH1 0x60 DUP3 ADD SWAP1 POP DUP2 DUP2 SUB PUSH1 0x0 DUP4 ADD MSTORE PUSH2 0x187E DUP2 DUP7 PUSH2 0x1511 JUMP JUMPDEST SWAP1 POP PUSH2 0x188D PUSH1 0x20 DUP4 ADD DUP6 PUSH2 0x1735 JUMP JUMPDEST DUP2 DUP2 SUB PUSH1 0x40 DUP4 ADD MSTORE PUSH2 0x189F DUP2 DUP5 PUSH2 0x1511 JUMP JUMPDEST SWAP1 POP SWAP5 SWAP4 POP POP POP POP JUMP JUMPDEST PUSH1 0x0 PUSH1 0x20 DUP3 ADD SWAP1 POP DUP2 DUP2 SUB PUSH1 0x0 DUP4 ADD MSTORE PUSH2 0x18C2 DUP2 PUSH2 0x15FA JUMP JUMPDEST SWAP1 POP SWAP2 SWAP1 POP JUMP JUMPDEST PUSH1 0x0 PUSH1 0x20 DUP3 ADD SWAP1 POP DUP2 DUP2 SUB PUSH1 0x0 DUP4 ADD MSTORE PUSH2 0x18E2 DUP2 PUSH2 0x161D JUMP JUMPDEST SWAP1 POP SWAP2 SWAP1 POP JUMP JUMPDEST PUSH1 0x0 PUSH1 0x20 DUP3 ADD SWAP1 POP DUP2 DUP2 SUB PUSH1 0x0 DUP4 ADD MSTORE PUSH2 0x1902 DUP2 PUSH2 0x1640 JUMP JUMPDEST SWAP1 POP SWAP2 SWAP1 POP JUMP JUMPDEST PUSH1 0x0 PUSH1 0x20 DUP3 ADD SWAP1 POP DUP2 DUP2 SUB PUSH1 0x0 DUP4 ADD MSTORE PUSH2 0x1922 DUP2 PUSH2 0x1663 JUMP JUMPDEST SWAP1 POP SWAP2 SWAP1 POP JUMP JUMPDEST PUSH1 0x0 PUSH1 0x20 DUP3 ADD SWAP1 POP DUP2 DUP2 SUB PUSH1 0x0 DUP4 ADD MSTORE PUSH2 0x1942 DUP2 PUSH2 0x1686 JUMP JUMPDEST SWAP1 POP SWAP2 SWAP1 POP JUMP JUMPDEST PUSH1 0x0 PUSH1 0x20 DUP3 ADD SWAP1 POP DUP2 DUP2 SUB PUSH1 0x0 DUP4 ADD MSTORE PUSH2 0x1962 DUP2 PUSH2 0x16A9 JUMP JUMPDEST SWAP1 POP SWAP2 SWAP1 POP JUMP JUMPDEST PUSH1 0x0 PUSH1 0x20 DUP3 ADD SWAP1 POP DUP2 DUP2 SUB PUSH1 0x0 DUP4 ADD MSTORE PUSH2 0x1982 DUP2 PUSH2 0x16CC JUMP JUMPDEST SWAP1 POP SWAP2 SWAP1 POP JUMP JUMPDEST PUSH1 0x0 PUSH1 0x20 DUP3 ADD SWAP1 POP DUP2 DUP2 SUB PUSH1 0x0 DUP4 ADD MSTORE PUSH2 0x19A2 DUP2 PUSH2 0x16EF JUMP JUMPDEST SWAP1 POP SWAP2 SWAP1 POP JUMP JUMPDEST PUSH1 0x0 PUSH1 0x20 DUP3 ADD SWAP1 POP DUP2 DUP2 SUB PUSH1 0x0 DUP4 ADD MSTORE PUSH2 0x19C2 DUP2 PUSH2 0x1712 JUMP JUMPDEST SWAP1 POP SWAP2 SWAP1 POP JUMP JUMPDEST PUSH1 0x0 PUSH2 0x19D3 PUSH2 0x19E4 JUMP JUMPDEST SWAP1 POP PUSH2 0x19DF DUP3 DUP3 PUSH2 0x1B2F JUMP JUMPDEST SWAP2 SWAP1 POP JUMP JUMPDEST PUSH1 0x0 PUSH1 0x40 MLOAD SWAP1 POP SWAP1 JUMP JUMPDEST PUSH1 0x0 PUSH8 0xFFFFFFFFFFFFFFFF DUP3 GT ISZERO PUSH2 0x1A09 JUMPI PUSH2 0x1A08 PUSH2 0x1C36 JUMP JUMPDEST JUMPDEST PUSH2 0x1A12 DUP3 PUSH2 0x1C79 JUMP JUMPDEST SWAP1 POP PUSH1 0x20 DUP2 ADD SWAP1 POP SWAP2 SWAP1 POP JUMP JUMPDEST PUSH1 0x0 DUP2 SWAP1 POP DUP2 PUSH1 0x0 MSTORE PUSH1 0x20 PUSH1 0x0 KECCAK256 SWAP1 POP SWAP2 SWAP1 POP JUMP JUMPDEST PUSH1 0x0 DUP2 MLOAD SWAP1 POP SWAP2 SWAP1 POP JUMP JUMPDEST PUSH1 0x0 DUP3 DUP3 MSTORE PUSH1 0x20 DUP3 ADD SWAP1 POP SWAP3 SWAP2 POP POP JUMP JUMPDEST PUSH1 0x0 DUP2 SWAP1 POP SWAP3 SWAP2 POP POP JUMP JUMPDEST PUSH1 0x0 PUSH2 0x1A66 DUP3 PUSH2 0x1AB1 JUMP JUMPDEST SWAP2 POP PUSH2 0x1A71 DUP4 PUSH2 0x1AB1 JUMP JUMPDEST SWAP3 POP DUP3 PUSH32 0xFFFFFFFFFFFFFFFFFFFFFFFFFFFFFFFFFFFFFFFFFFFFFFFFFFFFFFFFFFFFFFFF SUB DUP3 GT ISZERO PUSH2 0x1AA6 JUMPI PUSH2 0x1AA5 PUSH2 0x1BA9 JUMP JUMPDEST JUMPDEST DUP3 DUP3 ADD SWAP1 POP SWAP3 SWAP2 POP POP JUMP JUMPDEST PUSH1 0x0 DUP2 SWAP1 POP SWAP2 SWAP1 POP JUMP JUMPDEST DUP3 DUP2 DUP4 CALLDATACOPY PUSH1 0x0 DUP4 DUP4 ADD MSTORE POP POP POP JUMP JUMPDEST PUSH1 0x0 JUMPDEST DUP4 DUP2 LT ISZERO PUSH2 0x1AE8 JUMPI DUP1 DUP3 ADD MLOAD DUP2 DUP5 ADD MSTORE PUSH1 0x20 DUP2 ADD SWAP1 POP PUSH2 0x1ACD JUMP JUMPDEST DUP4 DUP2 GT ISZERO PUSH2 0x1AF7 JUMPI PUSH1 0x0 DUP5 DUP5 ADD MSTORE JUMPDEST POP POP POP POP JUMP JUMPDEST PUSH1 0x0 PUSH1 0x2 DUP3 DIV SWAP1 POP PUSH1 0x1 DUP3 AND DUP1 PUSH2 0x1B15 JUMPI PUSH1 0x7F DUP3 AND SWAP2 POP JUMPDEST PUSH1 0x20 DUP3 LT DUP2 EQ ISZERO PUSH2 0x1B29 JUMPI PUSH2 0x1B28 PUSH2 0x1BD8 JUMP JUMPDEST JUMPDEST POP SWAP2 SWAP1 POP JUMP JUMPDEST PUSH2 0x1B38 DUP3 PUSH2 0x1C79 JUMP JUMPDEST DUP2 ADD DUP2 DUP2 LT PUSH8 0xFFFFFFFFFFFFFFFF DUP3 GT OR ISZERO PUSH2 0x1B57 JUMPI PUSH2 0x1B56 PUSH2 0x1C36 JUMP JUMPDEST JUMPDEST DUP1 PUSH1 0x40 MSTORE POP POP POP JUMP JUMPDEST PUSH1 0x0 PUSH2 0x1B6B DUP3 PUSH2 0x1AB1 JUMP JUMPDEST SWAP2 POP PUSH32 0xFFFFFFFFFFFFFFFFFFFFFFFFFFFFFFFFFFFFFFFFFFFFFFFFFFFFFFFFFFFFFFFF DUP3 EQ ISZERO PUSH2 0x1B9E JUMPI PUSH2 0x1B9D PUSH2 0x1BA9 JUMP JUMPDEST JUMPDEST PUSH1 0x1 DUP3 ADD SWAP1 POP SWAP2 SWAP1 POP JUMP JUMPDEST PUSH32 0x4E487B7100000000000000000000000000000000000000000000000000000000 PUSH1 0x0 MSTORE PUSH1 0x11 PUSH1 0x4 MSTORE PUSH1 0x24 PUSH1 0x0 REVERT JUMPDEST PUSH32 0x4E487B7100000000000000000000000000000000000000000000000000000000 PUSH1 0x0 MSTORE PUSH1 0x22 PUSH1 0x4 MSTORE PUSH1 0x24 PUSH1 0x0 REVERT JUMPDEST PUSH32 0x4E487B7100000000000000000000000000000000000000000000000000000000 PUSH1 0x0 MSTORE PUSH1 0x32 PUSH1 0x4 MSTORE PUSH1 0x24 PUSH1 0x0 REVERT JUMPDEST PUSH32 0x4E487B7100000000000000000000000000000000000000000000000000000000 PUSH1 0x0 MSTORE PUSH1 0x41 PUSH1 0x4 MSTORE PUSH1 0x24 PUSH1 0x0 REVERT JUMPDEST PUSH1 0x0 DUP1 REVERT JUMPDEST PUSH1 0x0 DUP1 REVERT JUMPDEST PUSH1 0x0 DUP1 REVERT JUMPDEST PUSH1 0x0 DUP1 REVERT JUMPDEST PUSH1 0x0 PUSH1 0x1F NOT PUSH1 0x1F DUP4 ADD AND SWAP1 POP SWAP2 SWAP1 POP JUMP JUMPDEST PUSH32 0x6D6173736167697374206E616D652063616E6E6F74206265206C65667420656D PUSH1 0x0 DUP3 ADD MSTORE PUSH32 0x7074792100000000000000000000000000000000000000000000000000000000 PUSH1 0x20 DUP3 ADD MSTORE POP JUMP JUMPDEST PUSH32 0x736572766963652773206E616D652063616E6E6F74206265206C65667420656D PUSH1 0x0 DUP3 ADD MSTORE PUSH32 0x7074792100000000000000000000000000000000000000000000000000000000 PUSH1 0x20 DUP3 ADD MSTORE POP JUMP JUMPDEST PUSH32 0x6E616D652063616E6E6F74206265206C65667420656D70747921000000000000 PUSH1 0x0 DUP3 ADD MSTORE POP JUMP JUMPDEST PUSH32 0x4E616D652063616E6E6F74206265206C65667420656D70747921000000000000 PUSH1 0x0 DUP3 ADD MSTORE POP JUMP JUMPDEST PUSH32 0x576520646F6E2774206B6E6F772074686973206D617373616769737421000000 PUSH1 0x0 DUP3 ADD MSTORE POP JUMP JUMPDEST PUSH32 0x616C726561647920696E207468652073797374656D2100000000000000000000 PUSH1 0x0 DUP3 ADD MSTORE POP JUMP JUMPDEST PUSH32 0x4167652063616E6E6F74206265206C65667420656D7074792100000000000000 PUSH1 0x0 DUP3 ADD MSTORE POP JUMP JUMPDEST PUSH32 0x596F7572206E616D652063616E6E6F74206265206C65667420656D7074792100 PUSH1 0x0 DUP3 ADD MSTORE POP JUMP JUMPDEST PUSH32 0x5365727669636520616C72656164792065787369737421000000000000000000 PUSH1 0x0 DUP3 ADD MSTORE POP JUMP JUMPDEST PUSH2 0x1E50 DUP2 PUSH2 0x1AB1 JUMP JUMPDEST DUP2 EQ PUSH2 0x1E5B JUMPI PUSH1 0x0 DUP1 REVERT JUMPDEST POP JUMP INVALID LOG2 PUSH5 0x6970667358 0x22 SLT KECCAK256 AND 0x2C SWAP8 DUP15 SWAP9 CALL ADD MLOAD EXTCODESIZE CREATE2 0xD0 DELEGATECALL BYTE EQ SWAP11 DUP16 PUSH20 0xB5D363922AC344901E4EFF406880AC64736F6C63 NUMBER STOP ADDMOD SMOD STOP CALLER "
		},
		"gasEstimates": {
			"creation": {
				"codeDepositCost": "1565600",
				"executionCost": "1638",
				"totalCost": "1567238"
			},
			"external": {
				"all_massagists()": "infinite",
				"make_appointment(string,string)": "infinite",
				"massagists_customers(string)": "infinite",
				"new_service(string,uint256)": "infinite",
				"new_worker(string,string)": "infinite",
				"pay_to_massagist(string,uint256)": "infinite",
				"pricelist()": "infinite"
			}
		},
		"methodIdentifiers": {
			"all_massagists()": "02767c33",
			"make_appointment(string,string)": "ce30d097",
			"massagists_customers(string)": "af1d3ff7",
			"new_service(string,uint256)": "2eeca509",
			"new_worker(string,string)": "7abe14bf",
			"pay_to_massagist(string,uint256)": "a4caaf18",
			"pricelist()": "123b62e6"
		}
	},
	"abi": [
		{
			"inputs": [],
			"name": "all_massagists",
			"outputs": [],
			"stateMutability": "payable",
			"type": "function"
		},
		{
			"inputs": [
				{
					"internalType": "string",
					"name": "massagist_name",
					"type": "string"
				},
				{
					"internalType": "string",
					"name": "my_name",
					"type": "string"
				}
			],
			"name": "make_appointment",
			"outputs": [],
			"stateMutability": "payable",
			"type": "function"
		},
		{
			"inputs": [
				{
					"internalType": "string",
					"name": "name",
					"type": "string"
				}
			],
			"name": "massagists_customers",
			"outputs": [],
			"stateMutability": "payable",
			"type": "function"
		},
		{
			"inputs": [
				{
					"internalType": "string",
					"name": "service_name",
					"type": "string"
				},
				{
					"internalType": "uint256",
					"name": "price",
					"type": "uint256"
				}
			],
			"name": "new_service",
			"outputs": [],
			"stateMutability": "payable",
			"type": "function"
		},
		{
			"inputs": [
				{
					"internalType": "string",
					"name": "name",
					"type": "string"
				},
				{
					"internalType": "string",
					"name": "age",
					"type": "string"
				}
			],
			"name": "new_worker",
			"outputs": [],
			"stateMutability": "payable",
			"type": "function"
		},
		{
			"inputs": [
				{
					"internalType": "string",
					"name": "massagist_name",
					"type": "string"
				},
				{
					"internalType": "uint256",
					"name": "payment",
					"type": "uint256"
				}
			],
			"name": "pay_to_massagist",
			"outputs": [],
			"stateMutability": "payable",
			"type": "function"
		},
		{
			"inputs": [],
			"name": "pricelist",
			"outputs": [],
			"stateMutability": "payable",
			"type": "function"
		}
	]
}